:020000040800F2
:1000000000000120355600088D0400085D0200083C
:1000100083020008870200088B020008000000002D
:100020000000000000000000000000008F04000835
:100030008F020008000000009104000893040008EB
:100040008556000885560008855600088556000824
:100050008556000885560008855600088556000814
:100060008556000885560008855600088556000804
:1000700085560008855600088556000885560008F4
:1000800085560008855600088556000800000000C7
:10009000000000000000000000000000855600087D
:1000A00085560008855600088556000885560008C4
:1000B00085560008855600088556000885560008B4
:1000C00085560008855600088556000885560008A4
:1000D000855600085D0E00088556000800000000E7
:1000E0008556000885560008855600080000000067
:1000F000000000000000000000000000855600081D
:100100000000000085560008855600088556000846
:1001100000000000000000000000000000000000DF
:100120008556000885560008855600088556000843
:1001300085560008000000000000000000000000DC
:1001400000000000000000000000000085560008CC
:100150008556000885560008855600088556000813
:1001600085560008855600080000000000000000C9
:10017000000000000000000000000000000000007F
:10018000000000008556000800000000000000008C
:040190008556000888
:100198002D484FF462710844EFF308812B4A126826
:1001A80012F0400F08BF80F308882DE9F04F0C4685
:1001B800EFF30985EFF31086EFF31187EFF3138858
:1001C800EFF314892DE9F003EFF308801EF0100F08
:1001D80002D12DED108A0EE01D49096801F4A00135
:1001E800B1F5A00F07D1F1EE101A02B42DED108A67
:1001F8002DED100AFFE7EFF30881044602F020FB1B
:10020800EFF30881A4EB01014FEA9101102988BF9F
:10021800BDEC100A29B1BDEC108A88BF04BCE1EE20
:10022800102ABDE8F00385F3098886F3108887F360
:10023800118888F3138889F314882046BDE8F04FA5
:1002480080F308887047000018030020100300207E
:1002580088ED00E0EFF30980EFF3088172462DE99D
:10026800005002F0B3FA000001D4BDE8009002F09B
:10027800E5FABDE80050FFF78BBFFFF7EBBFFFF7CC
:10028800E9BFFFF7E7BFFFF783BF00BF53B94AB91C
:10029800002908BF00281CBF4FF0FF314FF0FF3086
:1002A80000F00CB8ADF1080C6DE904CE05F014FAB5
:1002B800DDF804E0DDE9022304B07047704700BFB1
:1002C80010B5054C237833B9044B13B10448AFF388
:1002D80000800123237010BD2000002000000000D2
:1002E8008059000808B5034B1BB103490348AFF315
:1002F800008008BD0000000024000020805900088C
:1003080030B589B0002403940494059406940794A6
:100318000094194B1A6B42F004021A631A6B02F02C
:1003280004020092009A01941A6B42F080021A6348
:100338001A6B02F080020192019A02941A6B42F041
:1003480001021A631B6B03F001030293029B0B4D1E
:1003580022464FF40051284600F09CFC4FF400530D
:100368000393012304930594069403A9284600F0F7
:10037800ADFB09B030BD00BF0038024000080240A4
:1003880072B6FEE700B595B03022002108A805F046
:100398009BF9002303930493059306930793019312
:1003A800204A116C41F080511164126C02F08052A5
:1003B8000192019A02931C4A136823F4404343F4C0
:1003C80000431360136803F440430293029B012324
:1003D80008934FF48033099302230E934FF480025D
:1003E8000F9219221092A8221192129304231393A8
:1003F80008A800F06BF880B90F2303930221049139
:10040800002305934FF480520692079303A800F047
:10041800ADFA20B915B05DF804FBFFF7B1FFFFF79F
:10042800AFFF00BF003802400070004008B500F080
:10043800C7FCFFF7A7FFFFF763FF104C204604F047
:100448007DFE204600F00AFD612000F0A9FF0C4C5B
:1004580000224FF40051204600F01CFC4FF47A7043
:1004680000F0DAFC01224FF40051204600F012FCA3
:100478004FF47A7000F0D0FCE9E700BF3C000020A0
:1004880000080240FEE77047704708B500F0B2FC6C
:1004980008BD000082B0002100910B4B5A6C42F459
:1004A80080425A645A6C02F480420092009A019188
:1004B8001A6C42F080521A641B6C03F0805301934B
:1004C800019B02B0704700BF00380240002800F0CE
:1004D800E08170B582B00446036813F0010F3BD089
:1004E8009F4B9B6803F00C03042B2CD09C4B9B6800
:1004F80003F00C03082B21D06368B3F5803F4FD07D
:10050800B3F5A02F52D0964B1A6822F480321A60A5
:100518001A6822F480221A606368002B50D000F019
:1005280075FC05468E4B1B6813F4003F14D100F090
:100538006DFC401B6428F5D90320B1E1884B5B684A
:1005480013F4800FD8D0864B1B6813F4003F03D0F8
:100558006368002B00F09F81236813F0020F54D0CA
:100568007F4B9B6813F00C0F3ED07D4B9B6803F0CC
:100578000C03082B33D0E368002B68D0794B012299
:100588001A6000F043FC0546754B1B6813F0020F18
:1005980054D100F03BFC401B0228F5D903207FE131
:1005A8006F4A136843F480331360B5E76C4B1A68DD
:1005B80042F480221A601A6842F480321A60ABE76B
:1005C80000F024FC0546664B1B6813F4003FC3D0BB
:1005D80000F01CFC401B6428F5D9032060E1604B47
:1005E8005B6813F4800FC6D15D4B1B6813F0020FD4
:1005F80003D0E368012B40F05081594A136823F077
:10060800F803216943EAC1031360236813F0080F54
:1006180042D063696BB3534B0122C3F8802E00F0BC
:10062800F5FB05464E4B5B6F13F0020F34D100F01B
:10063800EDFB401B0228F5D9032031E1484A136835
:1006480023F0F803216943EAC1031360DDE7454B52
:1006580000221A6000F0DAFB0546414B1B6813F0D4
:10066800020FD2D000F0D2FB401B0228F5D903209C
:1006780016E13C4B0022C3F8802E00F0C7FB05466C
:10068800374B5B6F13F0020F06D000F0BFFB401B27
:100698000228F5D9032003E1236813F0040F77D06B
:1006A8002F4B1B6C13F0805F33D1002301932C4B2D
:1006B8001A6C42F080521A641B6C03F08053019349
:1006C800019B0125284B1B6813F4807F23D0A36866
:1006D800012B34D0052B38D0214B1A6F22F00102A0
:1006E8001A671A6F22F004021A67A368002B3DD01C
:1006F80000F08CFB06461A4B1B6F13F0020F46D115
:1007080000F084FB801B41F288339842F3D9032020
:10071800C6E00025D6E7144A136843F480731360D3
:1007280000F074FB0646104B1B6813F4807FCED193
:1007380000F06CFB801B0228F5D90320B0E0084AC2
:10074800136F43F001031367CFE7054B1A6F42F0AD
:1007580004021A671A6F42F001021A67C5E700BF60
:1007680000380240000047420070004000F04EFB95
:100778000646524B1B6F13F0020F08D000F046FBE1
:10078800801B41F288339842F3D9032088E0EDB901
:10079800A369002B00F08380484A926802F00C029B
:1007A800082A51D0022B17D0454B00221A6600F0B8
:1007B8002DFB0446414B1B6813F0007F42D000F02C
:1007C80025FB001B0228F5D9032069E03B4A136C7E
:1007D80023F080531364DBE7394B00221A6600F0DC
:1007E80015FB0546354B1B6813F0007F06D000F05B
:1007F8000DFB401B0228F5D9032051E0E369226A6A
:100808001343626A43EA8213A26A5208013A43EA2E
:100818000243E26A43EA0263284A5360284B0122F2
:100828001A6600F0F3FA0446244B1B6813F0007FA5
:1008380006D100F0EBFA001B0228F5D903202FE0BF
:1008480000202DE000202BE0012B2BD01B4B5B68F8
:1008580003F48001E269914226D103F03F02216A44
:100868008A4223D1616A47F6C0721A40B2EB811FEF
:100878001ED103F44031A26A5208013AB1EB024F8B
:1008880018D103F07063E26AB3EB026F14D1002051
:1008980006E001207047012002E0012000E000206E
:1008A80002B070BD0120FBE70120F9E70120F7E75E
:1008B8000120F5E70120F3E70120F1E700380240C5
:1008C8000000474208B5264B9B6803F00C03042B35
:1008D80041D0082B41D1224B5A6802F03F025B6895
:1008E80013F4800F12D01E4B5968C1F388111D48AC
:1008F8000023A1FB0001FFF7C9FC194B5B68C3F398
:10090800014301335B00B0FBF3F027E0144B586858
:10091800C0F388104FEA401CBCEB000C6EEB0E0EC7
:100928004FEA8E1343EA9C634FEA8C11B1EB0C013A
:1009380063EB0E03DB0043EA5173C90011EB000CB3
:1009480043F10003990200234FEA8C2041EA9C51AD
:10095800FFF79CFCD1E7034800E0034808BD00BF4F
:100968000038024040787D010024F400002800F09F
:100978009B8070B50D4604464F4B1B6803F0070378
:100988008B4208D2CBB24C4A1370136803F00703AA
:100998008B4240F08B80236813F0020F17D013F0BE
:1009A800040F04D0454A936843F4E05393602368E6
:1009B80013F0080F04D0414A936843F460439360EE
:1009C8003E4A936823F0F003A1680B4393602368C1
:1009D80013F0010F32D06368012B21D09A1E012A2F
:1009E80025D9364A126812F0020F61D033498A6855
:1009F80022F0030213438B6000F008FA06462F4BDF
:100A08009B6803F00C036268B3EB820F16D000F00A
:100A1800FDF9801B41F288339842F0D9032042E067
:100A2800264A126812F4003FE0D101203BE0234A35
:100A3800126812F0007FD9D1012034E01E4B1B68E8
:100A480003F00703AB4207D9EAB21B4B1A701B68C5
:100A580003F00703AB422DD1236813F0040F06D02F
:100A6800164A936823F4E053E1680B4393602368C4
:100A780013F0080F07D0114A936823F460432169E3
:100A880043EAC1039360FFF71DFF0C4B9B68C3F358
:100A980003130B4AD35CD8400A4B18600A4B1868FA
:100AA80000F068F9002070BD012070470120FAE7C6
:100AB8000120F8E70120F6E7003C02400038024038
:100AC800A8590008080000200400002000230F2B6C
:100AD80000F2D78070B582B065E085684FEA430EB2
:100AE800032404FA0EF425EA0405CC6804FA0EF48B
:100AF8002C438460446824EA02044A68C2F3001262
:100B08009A40224342605CE0DC08083450F8242014
:100B180003F00705AD004FF00F0E0EFA05FE22EAAE
:100B28000E0E0A69AA4042EA0E0240F824205CE050
:100B3800042200E0002202FA0EF22A430234514D48
:100B480045F82420504A94686FEA0C0224EA0C0500
:100B58004E6816F4801F01D04CEA04054A4CA56083
:100B6800E46802EA04054E6816F4001F01D04CEA56
:100B78000405454CE560646802EA04054E6816F40D
:100B8800003F01D04CEA04053F4C656024682240D0
:100B98004D6815F4803F01D04CEA04023A4C2260BB
:100BA80001330F2B6BD801229A400C6804EA020C1F
:100BB80032EA0404F4D14C6804F00304013C012C2B
:100BC8008BD94A6802F00302032A09D0C4685D0081
:100BD8000322AA4024EA02048A68AA402243C26087
:100BE8004A6802F00302022A8ED004684FEA430ED4
:100BF800032202FA0EF224EA02044A6802F003020F
:100C080002FA0EF2224302604A6812F4403FC7D04B
:100C1800002201921D4A546C44F480445464526C7E
:100C280002F480420192019A9C08A51C154A52F8C8
:100C3800255003F0030E4FEA8E0E0F2202FA0EF231
:100C480025EA0205124A90423FF474AF02F5806229
:100C580090420ED002F5806290420CD002F580627C
:100C680090420AD002F5806290423FF461AF0722B9
:100C780061E701225FE702225DE703225BE702B03A
:100C880070BD704700380140003C01400038024008
:100C9800000002400AB18161704709048161704710
:100CA800002808DB0901C9B200F1604000F5614085
:100CB80080F80013704700F00F000901C9B2014B1A
:100CC8001954704714ED00E000B500F00700C0F1BA
:100CD800070CBCF1040F28BF4FF0040C031D062BB2
:100CE8000FD9C31E4FF0FF3E0EFA0CF021EA0001A7
:100CF80099400EFA03FE22EA0E0241EA02005DF86C
:100D080004FB0023EEE70000074AD36823F4E063FE
:100D18001B041B0C000200F4E060034343F0BF63B4
:100D280043F40033D360704700ED00E010B504468B
:100D3800054BD868C0F30220FFF7C6FF01462046DE
:100D4800FFF7AEFF10BD00BF00ED00E00138B0F1C5
:100D5800807F0BD24FF0E0235861054AF02182F8DA
:100D680023100020986107221A61704701207047FC
:100D780000ED00E010B504460E4B1A784FF47A7374
:100D8800B3FBF2F30C4A1068B0FBF3F0FFF7DEFF99
:100D980068B90F2C01D901200AE0002221464FF042
:100DA800FF30FFF7C3FF054B1C60002000E0012067
:100DB80010BD00BF00000020080000200400002033
:100DC80008B50B4B1A6842F400721A601A6842F4AC
:100DD80080621A601A6842F480721A600320FFF772
:100DE80093FF0F20FFF7C6FFFFF754FB002008BD55
:100DF800003C0240034A1168034B1B780B44136004
:100E0800704700BFB000002000000020014B1868A8
:100E1800704700BFB000002038B50446FFF7F6FF62
:100E28000546B4F1FF3F02D0044B1B781C44FFF782
:100E3800EDFF401BA042FAD338BD00BF00000020E0
:100E4800034AD2F8883043F47003C2F888307047F8
:100E580000ED00E0FFF79CB97047000030B583B0A3
:100E68000446084B0193019B074D002129605A2233
:100E780001F01AFC2B680BB103B030BD204600F01E
:100E88005EFAF9E75D0E0008F006002040F2074020
:100E98007047000000487047B8590008A0F13003B7
:100EA800DBB2092B01D830387047044A1368092B84
:100EB800B8BF092313600020704700BFF006002068
:100EC80070B50446002503E005EB850500EB4505F4
:100ED80023785BB1064E0023336014F8010BFFF74B
:100EE800DDFF3368002BEFD000223260284670BD4A
:100EF800F0060020013800EB4000034B03EB8003B1
:100F0800024A1360704700BFF45D0008B400002077
:100F180001280BD0022813D00E4B5A6C42F0100255
:100F28005A641A6B42F001021A637047094B5A6CF3
:100F380042F010025A641A6B42F001021A637047B9
:100F4800044B1A6C42F400321A641A6B42F008021D
:100F58001A6370470038024010B4294B9B6803F0AD
:100F68000C03042B23D0082B24D013B1254B03608A
:100F780001E0244B0360224CA368C3F30313224906
:100F8800CA5CD2B20368D3404360A268C2F382222B
:100F98008A5CD2B223FA02F28260A268C2F34232B9
:100FA8008A5CD2B2D340C3605DF8044B7047174BDC
:100FB8000360E0E7124B59685A6802F03F0211F4E7
:100FC800800F12D0114BB3FBF2F30D4A5268C2F3F3
:100FD800881202FB03F30A4A5268C2F30142013243
:100FE8005200B3FBF2F30360C5E7064BB3FBF2F321
:100FF800034A5268C2F3881202FB03F3EBE700BF0F
:10100800003802400024F4000C00002040787D01E4
:1010180070B584B006460C4615466846FFF79CFF37
:101028001E4B9E4205D003F580639E4201D0029B71
:1010380000E0039BE26812F4004F1DD003EB83032A
:1010480003EB83036D00B3FBF5F2154BA3FB02130F
:101058005B091801642103FB1122E36813F4004FB4
:1010680012D0D20032320E4BA3FB0232C2F342122C
:10107800104380B204B070BD03EB830303EB83031A
:10108800AD00B3FBF5F2E0E712013232044BA3FBEB
:101098000232C2F343121043EBE700BF00100140D5
:1010A8001F85EB5110B5034601684A1E02EB420248
:1010B800154850F82240226922F440522261E26821
:1010C80022F48052E260E26822F48062E260E26820
:1010D80042F00C02E260626922F480726261626925
:1010E80022F40072626102290AD0084908465A6847
:1010F800FFF78EFFA060E36843F40053E36010BD80
:1011080003490846F3E700BFF45D000800100140FA
:10111800004400402DE9F041022860D0032863D143
:101128004FF00B0E0A22444BD968904652004FF0FC
:10113800030C0CFA02F6F54321EA0601D960D968D6
:10114800D960D96877464FEA4E0E0CFA0EFC6FEA62
:101158000C0421EA0C01D960D968D960196821EA20
:10116800060119601E68022101FA02F216431E6088
:101178001E6826EA0C061E601E6801FA0EF10E4370
:101188001E60022835D0032844D1586A20F47060C4
:101198005862586A5862586A20F470405862586A0F
:1011A80058625E68012000FA08FC26EA0C065E60B8
:1011B8005E685E605E68B84026EA0000586058685D
:1011C8005860986828409860986802439A609A68BE
:1011D80022409A609A6811439960BDE8F0814FF007
:1011E800060E0522154B9FE74FF00A0E0922144BF5
:1011F8009AE7186A20F470001862186A40F4E00050
:101208001862186A20F070601862186A40F0E0608E
:101218001862C6E7586A20F0F0005862586A40F031
:1012280070005862586A20F470605862586A40F436
:10123800E0605862B5E700BF00040240000C0240BD
:1012480000000240034B1B681A68D36843F0200370
:10125800D3607047B4000020044B1B68044A9B1AF3
:101268009B10044803FB00F0704700BFB400002047
:10127800F45D0008ABAAAAAA38B505460C460822B0
:101288000021204603F0A2F90123236011492846D2
:1012980003F05CFF08B1012323600F49284603F0DF
:1012A80055FF08B1022323600C49284603F04EFF7E
:1012B80008B1032323600A49284603F05CFF20B1E4
:1012C8000E30FFF7FDFD606038BD4FF4E133636019
:1012D800FAE700BFC05D0008CC5D0008D85D0008D3
:1012E800E45D000838B5FFF7B7FF00F12504E5B263
:1012F80064B200221146204600F09CFE002C07DB59
:1013080005F01F0564090123AB40024A42F8243066
:1013180038BD00BF00E100E038B505460468204646
:10132800FFF7F6FD2046FFF7F5FE2846FFF7BAFE61
:101338002046FFF787FF2046FFF7D4FF38BD00B5EA
:1013480083B06946FFF798FF0098FFF7D3FD68461A
:10135800FFF7E2FF03B05DF804FB0000034B1B68D6
:101368001B68186800F02000704700BFB400002018
:10137800034B1B681B68186800F04000704700BFEB
:10138800B400002008B5FFF7E9FF0028FBD0034BA5
:101398001B681B685868C0F3080008BDB40000202B
:1013A800054B1B681A68136813F0800FFBD0C0F355
:1013B80008005060704700BFB4000020BFF34F8F93
:1013C8000549CA6802F4E062044B1343CB60BFF3DB
:1013D8004F8F00BFFDE700BF00ED00E00400FA05F5
:1013E800094B1868000F002120330AE000221A6018
:1013F8005A609A6822F4D77222F001029A60103378
:1014080001318142F2D37047001000E030B48568A2
:101418000C4C2C40A34202D0002030BC704703681B
:10142800994201D00020F8E74168002301E0520802
:101438000133012AFBD8994201D00020EDE70120B1
:10144800EBE700BFAFFD0F002DE9F8438146884662
:1014580017460B4B1E68360F00250A4C01E0103466
:101468000135B54208D23B46424649462046FFF779
:10147800CDFF0028F3D000E000242046BDE8F88323
:10148800001000E0201000E0084B1968090F002345
:10149800074801E0103001338B4204D2826812F011
:1014A8000F0FF7D100E00020704700BF001000E0E8
:1014B800201000E0F8B507460C461646FFF7C4FFB3
:1014C800054608B12846F8BDFFF7DEFF024668B1B9
:1014D800002301E064080133012CFBD853605168F4
:1014E8008B42EFD1176096601546EBE70546E9E7B2
:1014F80008B5FFF7A9FF034640B100220260426029
:10150800826822F4D77222F001028260184608BD70
:10151800094B1B681B0F012B07D0B0F1005F07D2E6
:1015280010F0010F06D10020704700F0010070474D
:101538000120704701207047002000E038B50446BC
:101548000D46FFF7E5FFE0B90F4B1B681B0F012B9A
:101558000CD024F0604323F0030343F0010345B9A2
:1015680014F0020F0AD04FF0004204E044F00100EA
:1015780003E04FF0404243EA020038BD4FF080429A
:10158800F9E74FF0FF30F8E7002000E0094B1B684F
:101598001B0F012B02D000F00100704710F0010F63
:1015A80005D1002801DB0020704701207047012089
:1015B800704700BF002000E008B5FFF7BFFF864670
:1015C8000F4B1B684FEA132C0CF0700CC3F303137A
:1015D8004CEA030C00210B4803E09E450FD0043071
:1015E800013161450AD20368054A1268120F012ABF
:1015F800F3D023F0005323F00203EEE7002008BDE8
:10160800002000E0082000E070B50C4B1B681E0AA3
:1016180006F07006C3F303131E430025084C01E0CF
:1016280004340135B54205D22068FFF7AFFF002822
:10163800F6D100E00024204670BD00BF002000E085
:10164800082000E070B504460D46FFF7B5FF0646D2
:1016580008B1304670BDFFF7D7FF06460028F8D01E
:1016680029462046FFF76AFF3060F2E708B5FFF722
:10167800A3FF08B10023036008BD00000A490A68F7
:10168800130A03F07003C2F3031213430868C0F38C
:10169800032018440023054A03E0002142F8041BF4
:1016A80001338342F9D37047002000E0082000E0AE
:1016B800002308E0084A02EBC30205A1D1E90001B2
:1016C800C2E900010133702BF4D97047AFF30080F1
:1016D800EFBEADDEEFBEADDE1803002008B5084A48
:1016E800D2F8FC3043F08073C2F8FC30FFF778FE84
:1016F800FFF7C4FF034A136843F00303136008BDF0
:1017080000ED00E0002000E0024A136843F04003C7
:101718001360704710030020024B186800F008009F
:10172800704700BF10030020024A136823F0080323
:101738001360704710030020024B186800F0100077
:10174800704700BF10030020024A136823F01003FB
:101758001360704710030020024B9B68103053F849
:101768002000704700ED00E0024A136823F00403EC
:101778001360704710030020024A136843F01003F7
:101788001360704710030020024A136843F00403F3
:10179800136070471003002020F00F0080B24FF252
:1017A8008033984201D00020704701F47F41B1F5A1
:1017B800084F01D0002070470120704720F0130027
:1017C80080B24BF26063984214BF0020012070473A
:1017D8004FF2EF33984201D00020704701F4704176
:1017E800B1F5004F01D0002070470120704700007C
:1017F800024A136843F0080313607047100300207F
:10180800024BDB6B9840C0B2704700BF0401002058
:101818008B6803F00F03062B0BD0072B0CD0052B7E
:1018280002D00023037001E0042303700B684360B7
:10183800704703230370F9E705230370F6E70000F8
:10184800F8B507460024047044600A4B1E68360F3A
:10185800094D01E010350134B44208D2AB6813F0E9
:10186800807FF7D029463846FFF7D2FFF2E738469F
:10187800F8BD00BF001000E0201000E0024B18681F
:1018880000F02000704700BF10030020094BD96901
:101898000023032B0BD8084A52F833200A4201D1FF
:1018A8000133F6E7044A02EBC303187970471120A5
:1018B800704700BF040100202C600008024A13682A
:1018C80023F0020313607047100300200F2894BF11
:1018D8000020012070470000024A136843F02003EB
:1018E8001360704710030020024A136843F0010395
:1018F8001360704710030020024A136823F0200386
:101908001360704710030020024A136823F0010394
:101918001360704710030020024A136823F0800305
:101928001360704710030020094B00E00433094A94
:10193800934203D21968084A9142F7D0054AD31A4C
:10194800064A126C9A4201DA044A1364704700BFCF
:1019580018030020A0060020EFBEADDE0401002021
:1019680000F47840B0F5684F09D0B0F5704F08D052
:10197800B0F5784F01D00020704701207047012052
:101988007047012070474BF6AB63984214BF0020A4
:101998000120704700F582400B3080B20A288CBFC6
:1019A800002001207047B0F53E4F14BF00200120F1
:1019B8007047000002280ED004D30338012801D84C
:1019C80001207047054A1368042BB8BF042313602D
:1019D8004FF0FF3070470020704700BFF00600202E
:1019E800012806D0022806D008B10020704706203A
:1019F800704705207047072070470000024A1368A7
:101A080043F002031360704710030020024B18686C
:101A180000F00100704700BF10030020024B986AD5
:101A280000F48060704700BF00ED00E000F00F0098
:101A38000D2801D0104670470A46FBE738B5044622
:101A480085692888FFF78CFF10B10435A56138BD7A
:101A58000235A561FBE70000034B1A6B1A63DA6ACB
:101A6800DA629A6A9A62704700ED00E030B4094A77
:101A78009061094B1C6BD461D86A1062996A5162F3
:101A88005D6B95629D6BD5621C63D862996230BCB0
:101A9800704700BF0401002000ED00E008B5EFF337
:101AA8001083EFF3118203B908BD04498B634A63BD
:101AB800FFF79EFE002383F31088F5E7040100205A
:101AC800044B1B6AB3F1004F00D07047014B0C2246
:101AD8009A61FAE704010020024A136843F0800380
:101AE8001360704710030020024B186800F0800054
:101AF800704700BF10030020044B586A20F4FC60B4
:101B080020F00700C004C00C704700BF040100208B
:101B180008B54FF403720021014802F057FD08BDD3
:101B2800040100200B4AFF2382F8203092F820306D
:101B380063F0FF03DB43B3FA83F3C3F12003D268F6
:101B4800C2F302220132934200D81346024AD363F9
:101B5800704700BF00ED00E00401002010B5FFF75A
:101B6800DBFD00B910BDFFF7DFFD074CA26B1321A9
:101B7800204602F089FC626B1421204602F084FCA6
:101B88000023A3636363EDE704010020C0F30012A0
:101B980010F0020F01D10020704708B51321024848
:101BA80002F072FC012008BD0401002070B500F0AD
:101BB8000F04C9B2112911D012291BD0102901D044
:101BC800002070BD164D2146284602F039FC024619
:101BD8001321284602F058FC0120F2E7104D214657
:101BE800284602F02DFC02461421284602F04CFC3F
:101BF8000120E6E70A4E1421304602F021FC054692
:101C08002146304602F01CFC02460DB1854205D93A
:101C18001421034802F038FC0120D2E70120D0E764
:101C28000401002038B5C1F30324C9B2102910D02B
:101C38001BD3113989B2012919D80E4D1421284610
:101C480002F0FEFB02462146284602F01DFC012058
:101C58000AE0084D1321284602F0F2FB024621460D
:101C6800284602F011FC012038BD0020FCE70020C6
:101C7800FAE700BF0401002010B5074C13212046E5
:101C880002F0DEFBA0631421204602F0D9FB60635A
:101C9800FFF7AEFD10BD00BF0401002038B5224B90
:101CA8005C6A14F0FF0500D138BD204802F056FCEC
:101CB8001F4802F053FC284602F05AFC14F0800F2B
:101CC80012D114F0200F17D114F0100F18D114F0FE
:101CD800080F1DD114F0020F22D114F0010FE3D028
:101CE800144802F03BFCDFE7134802F037FC0E4BC8
:101CF800986A02F03DFCE4E7104802F02FFCE3E7A5
:101D08000F4802F02BFC084B186902F031FCDEE7A3
:101D18000C4802F023FC044B186902F029FCD9E7AF
:101D2800094802F01BFCD8E7040100200C5E0008FB
:101D38001C5E0008BC5E0008345E00084C5E0008AB
:101D4800685E0008885E0008A85E000838B5274B62
:101D58005B6AC3F3072513F47F4F00D138BD1C0A13
:101D6800234802F0FBFB234802F0F8FB284602F068
:101D7800FFFB14F0800F15D114F0200F1AD114F0C6
:101D8800100F1BD114F0080F20D114F0040F25D127
:101D980014F0020F26D114F0010FDFD0164802F01C
:101DA800DDFBDBE7154802F0D9FB104BD86A02F0DF
:101DB800DFFBE1E7124802F0D1FBE0E7114802F04F
:101DC800CDFB0A4B186902F0D3FBDBE70E4802F0A3
:101DD800C5FB064B186902F0CBFBD6E70B4802F0AF
:101DE800BDFBD5E70A4802F0B9FBD4E7040100209F
:101DF800D45E00081C5E00081C5F0008345E000802
:101E08004C5E0008685E0008885E0008E45E000812
:101E1800005F000810B51B4BDC8C04B910BD1A48D4
:101E280002F09CFB194802F099FB204602F0A0FB47
:101E380014F4007F12D114F4807F13D114F0080F2A
:101E480014D114F0040F15D114F0020F16D114F0A8
:101E5800010FE3D00E4802F081FBDFE70D4802F0E6
:101E68007DFBE8E70C4802F079FBE7E70B4802F056
:101E780075FBE6E70A4802F071FBE5E7094802F05E
:101E88006DFBE4E704010020385F00081C5E0008D1
:101E9800C85F00084C5F0008605F0008785F0008B2
:101EA800905F0008B45F000810B5134B1C6A134814
:101EB80002F054FB124802F051FB204602F058FB96
:101EC800002C06DB14F0020F07D114F0804F08D164
:101ED80010BD0C4802F042FBF4E70B4802F03EFB51
:101EE800F3E70A4802F03AFBFFF7D8FEFFF72EFFA8
:101EF800FFF790FFECE700BF04010020E45F000853
:101F08001C5E0008F45F00080860000820600008F4
:101F1800F8B507460C461646002505E014F8011BDF
:101F2800384600F067FE0135B542F7D3F8BD10B565
:101F380082B00446019200F05DFE3A21204600F08E
:101F48000FFE04220DEB02012046FFF7E1FF3B21C3
:101F5800204600F005FE02B010BD000010B5A2B08A
:101F680001AC84220021204602F030FB044B1C63A4
:101F780021225A63034802F0FBFE22B010BD00BFC5
:101F8800BC0000200401002070B58B6B8C1AA410D3
:101F980013F0100F29D00025C369C3F340232B4445
:101FA80003F1080C204B186004255D6001F1180549
:101FB8009D600825DD6000F110051D6101265E6148
:101FC8001A4D9D61DE6100F114061E6203265E62F1
:101FD80099620621D96200EB8C032B60102C06D085
:101FE800212C19D0F4B106220EE01225D4E700F115
:101FF80020010D4B1963102159639A63D96360302E
:10200800186401225A6409220749094802F006FAAD
:10201800B4FA84F0400970BD034B1A6321225A6355
:102028000722F1E70722EFE7BC0000201801002093
:102038000401002010B40C4BDC6BA1400123A34029
:10204800013B13400B43DBB2002808DB00F1604082
:1020580000F5614080F800335DF8044B704700F0EC
:102068000F00024A1354F7E70401002014ED00E0C2
:1020780010B50446002201466FF00400FFF7DAFFAE
:10208800002221466FF00100FFF7D4FF002221460D
:102098004FF0FF30FFF7CEFF10BD70B506460D4676
:1020A800002405E00022314660B2FFF7C3FF013487
:1020B800A542F7DA70BD000008B5014602466FF088
:1020C8000300FFF7B7FF044AD2F8FC3043F480332B
:1020D800C2F8FC3008BD00BF00ED00E000280BDBB3
:1020E80000F1604000F5614090F80003C0B2054B74
:1020F800DB6B1841C0B2704700F00F00024B185C50
:10210800C0B2F4E70401002014ED00E010B5FFF7B9
:10211800B3FD0A4C00221321204602F0B5F96FF0F6
:102128000300FFF7DBFF0130C0B2FFF769FB02468F
:102138001421204602F0A8F910BD00BF04010020B8
:1021480038B5EFF31085EFF311846FF00300FFF754
:10215800C5FF05B138B944B1064BDB6BDC4084429E
:1021680005D9002002E0012000E0002038BD012050
:10217800FCE700BF0401002010B50446FFF7E0FFAC
:1021880090B99CB1631E022B0FD9A4F1100040B284
:10219800FFF7A4FF04466FF00300FFF79FFF844298
:1021A80094BF0020012000E0002010BD0120FCE7C2
:1021B800024B186800F00400704700BF10030020AD
:1021C800004870474801002040F2C51070470000E1
:1021D8000346034A92E8030083E803001846704761
:1021E8000C01002008B50C4B9B69033B032B08D856
:1021F800DFE803F002080B0EFFF756FE074802F06F
:10220800ADF908BDFFF74AFDF8E7FFF79FFDF5E7D1
:10221800FFF700FEF2E700BF04010020E8680008AD
:1022280008B5FFF781FBFFF767FBFFF76DFBFFF7CB
:1022380073FB044AD2F8FC3023F40033C2F8FC30B4
:1022480008BD00BF00ED00E008B50F21014802F00D
:10225800F7F808BD0401002008B502460F2102481E
:1022680002F012F908BD00BF0401002008B5FFF70D
:10227800EBFF034B1B6BC01A18BF012008BD00BF42
:102288000401002038B504460B4D0021284602F011
:10229800D7F820600121284602F0D2F860600221B8
:1022A800284602F0CDF8A0600321284602F0C8F8BD
:1022B800E060204638BD00BF0401002008B5024692
:1022C8000021024802F0E0F808BD00BF0401002028
:1022D80010B5BFF34F8F044B1C6804F00204FFF7DE
:1022E800EDFA204610BD00BF1003002010B500F025
:1022F8001DFB0446FFF7ECFF08B9204610BD044A51
:1023080013680A2BB8BF0A2313600024F5E700BF3F
:10231800F006002008B5FFF797FFFFF7E7FF08BDB5
:1023280010B5094C00232360FFF7F4FF23683BB97D
:1023380000F47F40B0F55F4F14BF0020012010BDAE
:1023480000202060FBE700BFF006002010B50C4C11
:1023580000232360FFF7DEFF236843B9FFF700FB84
:1023680040B1FFF771FF0430FFF776FF01E000226C
:10237800226010BDFFF768FF0230FFF76DFFF8E736
:10238800F006002038B50F4D00232B60FFF7C2FF81
:102398002B686BB90446FFF7F6FA70B92046FFF7C9
:1023A800F9FA60B92046FFF7FEFA20B9002001E0EB
:1023B8000020286038BD0320FCE70120FAE702204E
:1023C800F8E700BFF006002010B5044600230370AC
:1023D80043600B4BDB6913F0020F04D113F0040FB9
:1023E8000BD1204610BDFFF7CDFF032802D00123F3
:1023F8002370F6E702232370F3E7FFF721FAF0E7EB
:102408000401002070B582B0124CA5696E463046B2
:10241800FFF7DAFF083496E8030084E80300FFF7C3
:102428002DFA98B9EB1E092B06D8DFE803F0111135
:10243800080A05050505050C022002B070BD0A2032
:10244800FBE70420F9E7FFF721FAF6E70220F4E7B3
:102458000B20F2E70401002008B5FFF7F5FE023073
:10246800FFF744FF08BD000038B5184D00232B6066
:10247800FFF750FF04462B68B3B10025134B1B68C8
:10248800B3B929462046FFF787F9A8B92046FFF7D0
:1024980095F9B0B929462046FFF79AF958B1294667
:1024A8002046FFF7BFFB06E0FFF7D6FF0546E5E746
:1024B8000020064B186038BD29462046FFF776FBFA
:1024C800F9E72046FFF762FBF5E700BFF0060020BA
:1024D80008B5FFF7C9FF00B908BDFFF737FF0120AE
:1024E800FAE7000038B50446124D0721284601F0E6
:1024F800A7FF024607212046FFF719FD0D212846B0
:1025080001F09EFF02460D212046FFF710FD0E2127
:10251800284601F095FF02460E212046FFF707FDE9
:102528000F21284601F08CFF02460F212046FFF7B5
:10253800FEFC38BD0401002008B50021FFF782F831
:1025480000B108BD034A1368082BB8BF08231360FD
:10255800F7E700BFF006002038B504460A4D00230F
:102568002B60FFF7C3FE2B6803B138BDFFF7F8F9FE
:1025780001462046FFF766F80028F6D12B68082B9D
:10258800B8BF08232B60F0E7F006002008B56FF00D
:102598000400FFF7E1F820F00100FFF7DDFF08BDB8
:1025A80010B5FFF795FF00B110BDFFF7B9FEB8B140
:1025B800134C00232360FFF7E9FF2368E3B1104BB6
:1025C8001B68002BF0D00E4B00221A60FFF7DCF8D6
:1025D8000C4AD2F8FC3043F48023C2F8FC30E3E71D
:1025E800FFF7D2F8FFF792FD064AD2F8FC3043F421
:1025F8008023C2F8FC30D7E7FFF7BEF8DFE700BF5B
:10260800F006002000ED00E038B50446064D002332
:102618002B600846FFF7CEF92B6803B138BD014699
:102628002046FFF723F8F9E7F006002038B50446FE
:10263800074D00232B60FFF759FE2B6803B138BD07
:10264800FFF78EF901462046FFF710F8F7E700BFBD
:10265800F006002008B56FF00400FFF77DF820F0C1
:102668000100FFF7E3FF08BD08B5FFF765F800B9FB
:1026780008BDFFF769F8FFF7EDFFF9E708B5FFF7C1
:102688006DFAFFF7F1FF08BD08B5FFF7F7FF054A38
:10269800D2F8FC3023F48023C2F8FC30FFF764F84A
:1026A80008BD00BF00ED00E070B582B00C461546CD
:1026B800124B0193019BFEF7FBFFFFF729FAFFF787
:1026C80031FAFFF70BF8B4B9661CF6B23046FFF7DB
:1026D800CFFC29463046FFF7E0FCFFF7D5FF084A54
:1026E800D2F8FC3023F40033C2F8FC302046FFF760
:1026F800E3FC02B070BDFFF707F8EEE799010008A8
:1027080000ED00E010B5FFF7D9F8FFF79DFD074C85
:102718002063FFF7B9FFA069FFF7D8F810B9FFF7F2
:10272800E3F810BDFFF7D8F8F9E700BF040100206F
:1027380038B505460C461046FFF752F9631E1C4291
:1027480011D11D420FD1431F022B0CD8024621463E
:102758002846FEF7AFFE60B9064A1368082BB8BFD3
:102768000823136005E0034A1368042BB8BF042349
:10277800136038BDF006002038B505460C461046F3
:10278800FFF72EF9631E1C420AD11D4208D1431FD0
:10279800022B05D8024621462846FEF7A9FE05E089
:1027A800034A1368042BB8BF0423136038BD00BF65
:1027B800F006002040F29270704700000048704711
:1027C8004C60000808B5FEF7F9FD000038B513465F
:1027D8000A4601461846FFF729F90446057FFFF720
:1027E80015F908B10C2D17D02846FFF7C5FC00B322
:1027F800EFF30580C0B2FFF739F9FFF74FF9FFF79C
:102808005FF9FFF769F90C4AD2F8FC3043F400335A
:10281800C2F8FC30002038BDFFF7F0F8FFF7FEF8EB
:1028280018B1FFF719F90020F5E72046FFF706F978
:10283800F7E74FF0FF30EEE700ED00E070470000EB
:102848002DE9F84304460F460668D0F8048032465E
:102858004146806BFFF7EAF80546FFF745F968B986
:10286800EFF305895FFA89F94846FFF72FF810B1A9
:10287800FEF774FD68B34846FFF7F8F8284B1D616A
:10288800FFF73AF900B1274D3A4621462846FFF7A7
:102898007BFB234B5C69D3F81090A4EB0907D0B1FC
:1028A800FFF75CFB1E4B5B699C4203D0B54216D018
:1028B80045451CD0DFF868901121484601F0C0FD5D
:1028C80004461221484601F0BBFDB54218D04545E3
:1028D80020D0BDE8F883124802F04AFAE2E7A9EBF3
:1028E80004021A4411210E4801F0CEFDE0E70C481D
:1028F8004269A9EB04094A44122101F0C5FDD9E750
:10290800A642E4D0A642E4D03A463146204601F039
:10291800A6FEDEE78045DCD004464646F2E700BF67
:1029280004010020E067000800687047008880B252
:1029380070470078704701607047018070470170E8
:1029480070470000A0F16103DBB2052B0BD9A0F1A1
:102958004103DBB2052B08D9A0F13003DBB2092B08
:1029680005D8303870475738704737387047044AA9
:102978001368022BB8BF022313604FF0FF30704773
:10298800F00600204368013383607047836802685B
:10299800934201D9013B83607047024600204FF003
:1029A8007F4301E001301B0A0BB11342FAD0704794
:1029B800C900C840C0B2704760B9002901DB0846A9
:1029C80070470C4A1368032BB8BF032313606FF0DA
:1029D80000407047B1F1004F03D80028EFD04842BB
:1029E8007047044A1368032BB8BF032313604FF0E2
:1029F80000407047F00600208368187870478368A5
:102A080001338360704703688360704708B50160CD
:102A180011444160FFF7F7FF08BD8368426893429D
:102A280000D24360704703684068834201D8C01AE7
:102A3800704700207047006870478268406882428B
:102A480094BF00200120704710B50446FFF7F5FF3A
:102A580018B96068A368C01A10BD0020FCE738B533
:102A680004460D46FFF7F0FFA84200D32846A368A6
:102A78000344A36038BD000038B505460C46FFF78F
:102A8800E3FFA04200D338BD2846FFF77BFF034A87
:102A98001368012BB8BF01231360F4E7F006002088
:102AA80010B50C46FFF7D0FFA04200D310BD034A73
:102AB8001368012BB8BF01231360F7E7F006002065
:102AC8002DE9F04106460C4617461D46DFF83C80C6
:102AD8000023C8F80030416805FB01F12046FFF7E4
:102AE800DFFFD8F8003073B933682A4639462046E4
:102AF800984708B9BDE8F081A368726805FB0233FE
:102B0800A3600120F6E70020F4E700BFF0060020EC
:102B1800F8B5044615468768384601F06DFD70B96A
:102B280006462046FFF790FFA8420BD07B5D3A2B64
:102B38000AD03B2B0AD02C2B02D1012600E000261C
:102B48003046F8BD0126FBE70126F9E70126F7E73D
:102B580010B50446FFF771FF08B16368A36010BDA4
:102B680070B504460D46064E002333600121FFF779
:102B780083FF33681BB9A3685A1CA2601D7070BD1F
:102B8800F006002010B50C1E01DB204610BD644283
:102B98002D21FFF7E5FFF8E738B50446074D002378
:102BA8002B600121FFF768FF2B6823B9A3685A1C23
:102BB800A260187838BD0020FCE700BFF0060020AE
:102BC80070B506460C460A4D00232B60FFF7E4FF5C
:102BD8002B680BB1204670BD2B60FFF7B3FE2B6846
:102BE80013B900EB0414F5E73046FFF7CFFEF1E721
:102BF800F006002070B506460C460B4D00232B60EE
:102C08000221FFF739FF2B686BB92109B3685A1CF9
:102C1800B260064A515C197004F00F04B368591C7D
:102C2800B160125D1A7070BDF00600204868000897
:102C380070B50546124C002323600221FFF71CFFE4
:102C4800236813B10024204670BD26462360AB6874
:102C58001878FFF777FEC4B22401E4B2336833B1C1
:102C6800074B1B6853B9AB680233AB60EBE7AB6843
:102C78005878FFF767FE2043C4B2F1E70024E2E783
:102C8800F00600202DE9F04105460F461646D0F81B
:102C98000880002400E00134B44208D22846FFF737
:102CA800C7FF3B5D834207D8F5D2012000E0002032
:102CB800C5F80880BDE8F0814FF0FF30F8E770B53F
:102CC80006461446FFF7DEFFB0B905463046FFF763
:102CD800BBFE6200B0EB440F11D0631CB0EB430F96
:102CE8000BD3B36813F81410322906D113445B7858
:102CF800302B02D1012500E00025284670BD0125B2
:102D0800FBE70000F8B506460C4615460A4F0023B7
:102D18003B601146FFF7B0FE3B684BB10BE0214624
:102D2800B368581CB06011F8010B187015460C46B2
:102D38006A1E002DF3D1F8BDF006002038B505460F
:102D48000C46084601F06DFC024621462846FFF76E
:102D5800D9FF38BD70B506460C4605E014F8011BCE
:102D68003046FFF747FF2A46551E002AF6D170BDA8
:102D780038B505460C46084601F053FC0246214684
:102D88002846FFF7E7FF38BDF8B507460024264672
:102D980000E001360D4D00232B6021463846FFF731
:102DA8000FFF04462B68002BF3D0084B00221A6053
:102DB8003846FFF7CDFE0EB12046F8BD034A13682A
:102DC800032BB8BF032313600024F5E7F0060020A7
:102DD800F8B50546B1B10E460846FFF7DEFDC0F16D
:102DE8000301002910DB094C002323604F1E3046E5
:102DF800FFF7DEFD01462846FFF7FCFE23681BB9F6
:102E08003946EEE7FFF7F6FEF8BD00BFF0060020F2
:102E180038B50446064D00232B60FFF7B3FE2B6838
:102E280003B138BD01462046FFF7D2FFF9E700BFDE
:102E3800F006002070B504460D460B4E00233360A3
:102E48000121FFF72DFE36685EB92046FFF7D4FD55
:102E5800A84201D0304670BD2046FFF7D0FD0126BC
:102E6800F8E70026F6E700BFF006002070B5054633
:102E78000B4E002333602D21FFF7DCFF0446336837
:102E88002BB10021064B1B6833B1002070BD2846CA
:102E9800FFF77AFF0146F5E72046FFF78DFDF5E7D6
:102EA800F006002010B582B086460C461346064947
:102EB800EC4603C98CE80300224671466046FFF7DA
:102EC800FFFD02B010BD00BF9859000810B582B0D0
:102ED80086460C461346EC46054903C98CE80300B0
:102EE800224671466046FFF7EBFD02B010BD00BFF9
:102EF800A059000808B5064B1B68042B03D00548E9
:102F080001F0CCFE08BD044801F0C8FEFAE700BF96
:102F1800F00600205C6800085868000870B5044690
:102F280001F0B8FE0646114D00232B60FFF734FE72
:102F380020722B6803B170BD2C21304600F0EEF8EA
:102F48002B68002BF7D1304600F0DAF820602B68A8
:102F5800002BF0D12C21304600F0E0F82B68002B34
:102F6800E9D1304600F0CCF86060E4E7F0060020D4
:102F780010B5084C0023236041680068FFF7DCFAAD
:102F880023681BB9044801F089FE10BDFFF7B2FFA2
:102F9800FBE700BFF00600206068000810B5024695
:102FA8000B68084C0020206049681846FFF7C0FBF2
:102FB80023681BB9044801F071FE10BDFFF79AFFA2
:102FC800FBE700BFF00600206068000810B5084C59
:102FD8000023236041680068FFF716FB23681BB9CC
:102FE800044801F05BFE10BDFFF784FFFBE700BF5C
:102FF800F00600206068000810B502460B68084C0F
:103008000020206049681846FFF7B6FB23681BB903
:10301800044801F043FE10BDFFF76CFFFBE700BF5B
:10302800F00600206068000810B584B0164C002334
:10303800236001A8FFF772FF236843B99DF80C309D
:10304800313B032B1CD8DFE803F0080C11160F489E
:1030580001F024FE002004B010BD01A8FFF788FF8E
:10306800F8E701A90020FFF799FFF3E701A901207C
:10307800FFF794FFEEE701A90220FFF78FFFE9E7CA
:10308800034801F00BFEE5E7F00600205868000849
:10309800305E000810B584B0164C0023236001A8E8
:1030A800FFF73CFF236843B99DF80C30313B032BF5
:1030B8001CD8DFE803F0080C11160F4801F0EEFDEC
:1030C800002004B010BD01A8FFF780FFF8E701A9B0
:1030D8000020FFF791FFF3E701A90120FFF78CFF1C
:1030E800EEE701A90220FFF787FFE9E7034801F0AF
:1030F800D5FDE5E7F006002058680008305E0008B6
:1031080010B5054C00232360FFF73EFE236803B982
:1031180010BD0020FCE700BFF006002008B5FFF74F
:1031280089FE00B108BD034A1368042BB8BF042305
:103138001360F7E7F006002070B506460C460A4D06
:1031480000232B60FFF7DCFF20602B6803B170BD04
:103158002C213046FFF7E2FF2B68002BF7D13046D1
:10316800FFF7CEFF6060F2E7F006002038B50446AE
:10317800064D00232B60FFF7DFFF2B6803B138BD36
:103188003A212046FFF7CAFFF9E700BFF006002002
:1031980008B5FFF7F7F8032814BF0020012008BD81
:1031A80008B5FFF763F808B1002008BDFFF7F0FF86
:1031B8000028FAD00120F8E708B5FFF7F1FF08B9B1
:1031C800002008BDFFF7C2F80420FAE770B50546ED
:1031D8000E4601F0F2FF30B9FFF7EEFF044645B99D
:1031E80044F0030070BD01214FF0FF3001F0E7FF0C
:1031F800F2E73046FFF730F8F2E7000010B501F0CB
:1032080049FD094C00232360FFF77AFF0146236834
:103218003BB1002013B1044B00221A60FFF7D6FF20
:1032280010BD0120F6E700BFF006002038B501F018
:1032380031FD0446164D00232B60FFF761FF2D6812
:1032480045B100210D46124B1B68DBB92846FFF734
:10325800BDFF38BD2046FFF7F7FB01460028F2D036
:103268003B212046FFF7E6FD10B905460021EAE7B5
:103278002046FFF745FF0146054B1B68002BE2D1AE
:103288000125E0E7034801F009FD0020E1E700BF60
:10329800F00600205868000808B501F08EFF30B924
:1032A800FFF78AFF054801F0F9FC012008BD01215C
:1032B8004FF0FF3001F083FFF2E700BF60680008BD
:1032C80008B501F04FFD01F03DFC50B101F0A6FC3E
:1032D80020B1022001F0C0FC002008BD01F0A8FCCC
:1032E800F7E701F0A5FC0120F7E7000038B505462F
:1032F80001F0DEFC04461249FFF720FD296820464C
:10330800FFF766FD2F212046FFF72AFC6968204653
:10331800FFF75EFD2C212046FFF722FCA968204616
:10332800FFF756FD2C212046FFF71AFCE9682046D6
:10333800FFF74EFD01F0C2FCFFF7C2FF38BD00BF2A
:10334800B068000838B5054601F0B2FC04460E49DD
:10335800FFF7F4FC29682046FFF73AFD2C212046A8
:10336800FFF7FEFB69682046FFF732FD2C21204657
:10337800FFF7F6FBA9682046FFF72AFD01F09EFC3F
:10338800FFF79EFF38BD00BFA868000838B505469E
:1033980001F08EFC04460E49FFF7D0FC2968204650
:1033A800FFF716FD2C212046FFF7DAFB6968204657
:1033B800FFF70EFD2C212046FFF7D2FBA968204617
:1033C800FFF706FD01F07AFCFFF77AFF38BD00BF72
:1033D800A068000838B5054601F06AFC04460649AD
:1033E800FFF7ACFC29462046FFF7F2FC01F066FC2B
:1033F800FFF766FF38BD00BF9868000838B5054676
:1034080001F056FC04460E49FFF798FC296820464F
:10341800FFF7DEFC2C212046FFF7A2FB6968204657
:10342800FFF7F6FC2C212046FFF79AFBA9682046F7
:10343800FFF7EEFC01F042FCFFF742FF38BD00BF8A
:103448009068000870B506460D4601F031FC044648
:103458000949FFF773FC31462046FFF7B9FC2C21D8
:103468002046FFF77DFB29462046FFF7B1FC01F017
:1034780025FCFFF725FF70BD8868000838B50546AC
:1034880001F016FC04460A49FFF758FC2968204653
:10349800FFF79EFC2F212046FFF762FB6968204654
:1034A800FFF796FC01F00AFCFFF70AFF38BD00BFE2
:1034B8007C68000838B5054601F0FAFB04460E4959
:1034C800FFF73CFC29682046FFF782FC2F212046A5
:1034D800FFF746FB69682046FFF77AFC2C21204657
:1034E800FFF73EFBA9682046FFF772FC01F0E6FBF8
:1034F800FFF7E6FE38BD00BF7468000838B505461A
:1035080001F0D6FB04461249FFF718FC296820464B
:10351800FFF75EFC2F212046FFF722FB6968204653
:10352800FFF756FC2C212046FFF71AFBA968204616
:10353800FFF74EFC2F212046FFF712FBE9682046D3
:10354800FFF746FC01F0BAFBFFF7BAFE38BD00BF33
:103558006868000870B501F09DFB0446FFF786FC1B
:1035680005462C212046FFF765FC68B90646044647
:103578003146284601F07CFB204601F03FFB084B12
:1035880000221A60032070BD2046FFF76FFC064634
:10359800022204492046FFF785FC0446E8E700BFFD
:1035A800F00600206468000830B583B001F072FBB3
:1035B80004460D4D00232B606946FFF7BDFD2B68BF
:1035C80053B901F0A7FA019A0099204601F0DBF9F6
:1035D80030B1002003B030BD044801F05FFBF8E7CC
:1035E800034801F05BFBF4E7F00600205868000888
:1035F800B868000830B583B001F04CFB0446124DA2
:1036080000232B606946FFF7B1FD2B684BB9019A7F
:103618000099204601F0C5F948B10C4801F03EFB7D
:1036280002E00B4801F03AFB002003B030BD204611
:10363800FFF703FA18B1074801F030FBF4E7064832
:1036480001F02CFBF0E700BFF006002060680008DE
:1036580058680008BC680008B868000830B583B02E
:1036680001F018FB0446124D00232B606946FFF752
:103678007DFD2B684BB9019A0099204601F09FF90E
:1036880048B10C4801F00AFB02E00B4801F006FBC8
:10369800002003B030BD2046FFF7CFF918B1074826
:1036A80001F0FCFAF4E7064801F0F8FAF0E700BF89
:1036B800F00600206068000858680008BC68000828
:1036C800B868000828B1034A1368042BB8BF04235C
:1036D80013607047F006002038B5FEF775FD051F2A
:1036E80001F0E6FA04460449FFF728FB294620467C
:1036F800FFF76EFB002038BD8869000838B504461E
:103708000A221249FFF7CEFB18B9002585B12846D1
:1037180038BD3A212046FFF78DFB08B10B4DF5E780
:103728000B4A1368042BB8BF042313600025EEE787
:103738003A212046FFF77EFB0028E8D1044A1368A7
:10374800042BB8BF04231360E1E700BF5C690008DD
:10375800F006002010B582B00C466946FFF7ECFC75
:10376800009BA360019BE36002B010BD70B50446E6
:103778000D4610220021284600F028FF3A21204655
:10378800FFF758FB30B9114A1368042BB8BF04235C
:10379800136070BD04220E492046FFF783FB002802
:1037A800F1D03A212046FFF745FB0028EBD0074E21
:1037B800002333602046FFF7A1FF28603368002B01
:1037C800E7D129462046FFF7C5FFE2E7F0060020CB
:1037D800686900082DE9F843044601F05BFA0646DB
:1037E800A768D4F80C806568BD4219D9ED1B4FF065
:1037F8006D0901F08FF93046FFF726F9804500D8AA
:103808004046A84211D8054649463046FFF7A8F970
:1038180021682A4639443046FFF774FABDE8F88330
:103828000025A8464FF06C09E3E74FF06C09EBE779
:1038380010B584B001F02EFA0F4C002323606946BE
:10384800FFF794FF236873B10B4B1B687BB9FDF737
:1038580021FB0090FDF71AFB01906846FFF7BAFFBD
:10386800002004B010BD0098FFF72CFFECE70348D8
:1038780001F014FAF4E700BFF006002058680008C9
:1038880008B510B100F0ACFE28B1034A1368042B48
:10389800B8BF0423136008BDF006002010B584B03B
:1038A80001F0F8F90F4C002323606946FFF75EFF2B
:1038B800236873B10B4B1B6883B9FEF77FFF009039
:1038C800FEF778FF01906846FFF784FF002004B0F8
:1038D80010BD05490098FFF7D3FFEBE7034801F057
:1038E800DDF9F3E7F0060020C06800085868000812
:1038F80010B501F0CFF904463A21FFF79BFA70B1F1
:103908000A220D492046FFF7CDFA68B908220B496B
:103918002046FFF7C7FA50B1FFF7C0FF03E0084899
:1039280001F0BCF9002010BDFFF782FFFBE7054856
:1039380001F0B4F90020F6E77C6900087069000816
:1039480058680008305E000838B5054601F0B0F93F
:103958000446C5B16D21FFF703F929462046FFF754
:1039680037FA2046FFF770F808280FD901F01DFC38
:10397800054658B12C212046FFF7F2F82946204683
:10398800FFF726FAEDE76C21FFF7EAF8002038BDCB
:1039980010B501F008FC044620B1FFF7D5FF044636
:1039A800204610BD014801F079F9F9E7305E0008BA
:1039B80008B501F0FAFBFFF7C7FF08BD10B501F025
:1039C80069F904462C21FFF735FA68B12046FFF75C
:1039D800DBF901F0ECFB044601F06AF914B1214669
:1039E800FFF7C6F9002010BD014801F057F9F9E7C3
:1039F8005868000808B5074800F0B0FD064800F010
:103A0800ADFD064800F0AAFD054801F047F9002081
:103A180008BD00BFCC680008EC680008F46800081E
:103A28006068000808B501F095F8044800F096FDB4
:103A3800034801F033F9002008BD00BF0069000801
:103A48006068000808B5FEF7CDFB024801F026F9CA
:103A5800002008BD6068000810B501F01BF9044695
:103A68002C21FFF7E7F9A0B1052212492046FFF7FC
:103A78002DFA98B9092210492046FFF727FA80B98C
:103A880004220E492046FFF721FA68B1FFF7B2FF7A
:103A980003E00B4801F002F9002010BDFFF7C2FF58
:103AA800FBE7FFF7CFFFF8E7064800F057FDFFF701
:103AB800A1FFF2E754690008486900084069000856
:103AC800586800082069000810B501F0E3F80446BA
:103AD80009221C49FFF7E6F900BB04221A492046CF
:103AE800FFF7E0F9E8B90B2218492046FFF7DAF9A1
:103AF800D0B90B2216492046FFF7D4F9B8B90F22DE
:103B080014492046FFF7CEF9A0B9042212492046ED
:103B1800FFF7C8F988B1FFF79FFF01E0FFF7DCFD69
:103B280010BDFFF7E5FEFBE7FFF732FFF8E7FFF709
:103B38003FFFF5E7FFF742FFF2E7084801F0AEF86C
:103B48000020EDE7086A0008006A0008F469000828
:103B5800E8690008D8690008D0690008305E0008E4
:103B680038B504460D460849FFF7E8F83A212046DB
:103B7800FEF7F6FF29462046FFF72AF93B212046A3
:103B8800FEF7EEFF38BD00BF146A000810B582B01A
:103B980004466846FEF71CFB9DF80030042B15D040
:103BA800052B15D0032B0FD10A492046FFF7C6F87D
:103BB8003A212046FEF7D4FF01992046FFF708F97D
:103BC8003B212046FEF7CCFF02B010BD0249ECE7CE
:103BD8000249EAE71C6A0008246A00082C6A0008FF
:103BE80070B501F03FF8054601F062F8044601F0AF
:103BF800D8FA064654212046FEF7B2FF2946204649
:103C0800FEF7F8FF46B9052D0BD02046FEF76AFCF3
:103C180001F054F8022070BD31462046FFF7A0FF9E
:103C2800F1E72046FFF7B2FFEFE710B500F0DAFF43
:103C3800044601F03DF80146204600F047FC00200C
:103C480010BD000010B501F025F8044600F0CAFFC9
:103C5800214600F054FC2046FEF7EFFE20B1044850
:103C680001F01CF8002010BD024801F017F8F9E730
:103C7800BC6800086068000800F00400704738B5A8
:103C8800FFF7BCFA0446FFF7F7FF10B92CB9204636
:103C980038BDFFF7A5FF0446F9E7FEF7D5FA054654
:103CA800FEF77EFCFEF7D0FAA84203D0FFF798FF94
:103CB8000446ECE701F081FA0028E8D001F071FA37
:103CC800022101F07CFAE2E710B5FFF7AFFA0446EB
:103CD800FFF7D2FF10B92CB9204610BDFFF780FFBF
:103CE8000446F9E701F069FA10B9FEF759FCF3E761
:103CF80001F057FA022101F062FAF6E738B500F050
:103D0800C9FF0446164D00232B60FEF745FF2B68BC
:103D18002BB9672808D0042BB8BF04232B60104B9D
:103D28001B68C3B9002038BD2046FFF72DF80C4B9F
:103D38001B68002BF3D101F03CFA28B100F058FFC2
:103D4800084800F0ABFFEAE7054A1368042BB8BF40
:103D580004231360E3E7044800F0A0FFE2E700BF94
:103D6800F0060020606800085868000810B500F0E8
:103D780091FF0E4C00232360FFF706F8236823B158
:103D88000A4B1B6873B9002010BD01F014FA28B95A
:103D98002368042BB8BF04232360F1E7044800F02C
:103DA8007DFFEDE7034800F079FFECE7F00600201F
:103DB800606800085868000800F00400704790F92F
:103DC80004305BB1012B07D0B3F1FF3F01D00020D5
:103DD80070474FF0FF307047006870476FF0010080
:103DE8007047000008B500F063FF0249FEF7A6FF20
:103DF800002008BD346A000870B504460D4600234B
:103E0800036003710846FEF71FFE08B9204670BD1F
:103E18003A212846FFF70EF80028F7D002220A496F
:103E28002846FFF73FF810B1FF232371EEE7074E4E
:103E3800002333602846FEF7A7FF20603368002B75
:103E4800E4D101232371E1E7446A0008F006002069
:103E580030B583B004460023036003718360C360F8
:103E6800012303746D462846FFF7C6FF95E8030053
:103E780084E80300204603B030BD30B583B0044663
:103E88000023036003718360C360022303746D46DB
:103E98002846FFF7B1FF95E8030084E803002046B1
:103EA80003B030BD70B582B004460D4600230360F0
:103EB80003718360C360012202740A4E33600846AE
:103EC800FEF7B6FE336813B1204602B070BD6E46E9
:103ED80029463046FFF790FF96E8030084E8030080
:103EE800F2E700BFF006002070B582B004460D4628
:103EF8000023036003718360C360022202740A4EC8
:103F080033600846FEF794FE336813B1204602B0CA
:103F180070BD6E4629463046FFF76EFF96E80300EF
:103F280084E80300F2E700BFF006002070B50446FD
:103F38000D460023036043600A4E33600846FEF7CF
:103F480023FF206033680BB1204670BD2C21284622
:103F5800FFF7E4F83368002BF6D12846FEF714FF84
:103F68006060F1E7F0060020F0B585B004460F4622
:103F78000023036003718360C36003220274029309
:103F880003930D4E33606D462846FFF7CFFF04F1CB
:103F9800080395E8030083E80300336813B120465B
:103FA80005B0F0BD39462846FFF726FF95E803001F
:103FB80084E80300F3E700BFF006002070B586B080
:103FC80005460E460846FEF7E7FD04461422002182
:103FD80001A800F0FBFA632C12D008D9722C1BD070
:103FE800732C1ED131462846FFF747FF0CE0432CBF
:103FF8000DD0532C15D131462846FFF775FF03E045
:1040080031462846FFF724FF284606B070BD3146E2
:104018002846FFF747FFF7E731462846FFF7A4FF92
:10402800F2E7064A1368042BB8BF042313602C4632
:1040380001AE0FCE0FC433682360E5E7F006002019
:1040480090F90430012B01D00020704710B50468A6
:1040580001F0A7F8844201D0012010BD0020FCE740
:1040680090F90430012B01D00020704710B5046886
:1040780001F097F8844201D0002010BD0120FCE730
:10408800037C0BB90020704710B5044601F095F881
:1040980020B994F9043043B9012010BD2046FFF738
:1040A800CFFF0028F5D00020F7E701F086F858B1D7
:1040B80094F90430B3F1FF3F0DD02046FFF7D0FF4D
:1040C8000028EAD00420E8E72046FFF7B9FF0028D7
:1040D800EED00220E1E70320DFE738B50D46FFF711
:1040E800CFFF04462846FFF7CBFF84422CBF0020B1
:1040F800012038BD2DE9F0418CB004460E46174624
:10410800002515E0424800F0C9FD0CB0BDE8F0817B
:1041180007A93046FFF7E1FF50B1B4460DF11C0E78
:10412800BEE80F00ACE80F00DEF80030CCF8003035
:104138002046FEF789FC00283AD03B212046FEF7AE
:1041480079FEA8B3DFF8CC800023C8F800302146F8
:104158006846FFF733FF0DF11C0EEC46BCE80F0074
:10416800AEE80F00DCF80030CEF80030D8F80030A8
:10417800002BC7D101359DF82C30012BC8D05AB27D
:10418800002AD5D0023BDBB2012BD1D807A938468B
:10419800FFF7A3FF0028CBD0BC460DF11C0EBEE8EC
:1041A8000F00ACE80F00DEF80030CCF80030BFE7B5
:1041B8002046FEF749FCB0B900F0FFFF18B9337C80
:1041C8000BB93B7CCBB100F0F8FF00289DD0002D47
:1041D8009BD10F4800F062FD0E4A1368042BB8BF4C
:1041E8000423136091E70A4800F058FD094A136850
:1041F800042BB8BF0423136087E7054800F04EFD81
:10420800044A1368042BB8BF042313607DE700BF7A
:1042180058680008F006002010B50446FFF7CFFDE7
:10422800237C022B0AD0032B0FD0012B01D00020B6
:1042380010BD012100F0C3FF0320F9E7022100F0BF
:10424800BEFFFEF7ADF90320F2E7022100F0B7FF49
:10425800FEF7A6F904F1080000F0B6FC0320E7E732
:1042680030B58DB00446002512E021466846FFF7B8
:10427800A5FE0DF11C0EEC46BCE80F00AEE80F00E1
:10428800DCF80030CEF8003007A8FFF7C5FF05437B
:104298002046FEF7D9FB28B13B212046FEF7CAFD90
:1042A8000028E2D128460DB030BD38B50546144681
:1042B8000B7C0BB9137C33B1FEF77EFF237C13B163
:1042C800FFF77AFD18B92846FFF7CAFF38BDFFF790
:1042D80087FCFBE738B5037C022B10D00446032B80
:1042E80011D0012B04D00D4800F0D8FC002504E0C3
:1042F80000210846FEF76AFF0546284638BDFFF745
:10430800BEFC0546F9E7FFF7BAFC05460028F4D0DD
:1043180004F1080000F058FCEFE700BF58680008F7
:1043280008B50B7C1BB10846FFF7D4FF08BDFFF7A3
:10433800D1FFFBE730B58FB000F0ACFC044607C8EE
:104348000EAB03E907001422002106A800F03EF98D
:104358001422002101A800F039F90D4D00232B602B
:1043680001AA06A92046FFF7C5FE2B6813B1002055
:104378000FB030BD00F021FF28B101AA06A90BA893
:10438800FFF793FFF4E701A906A8FFF7C9FFEFE7D6
:10439800F006002010B500F07DFC044605220A490D
:1043A800FEF780FD40B9042208492046FEF77AFD51
:1043B80028B1FFF7BFFF01E0FFF714FD10BD044867
:1043C80000F06CFC0020F9E7506A0008486A000811
:1043D800305E000808B500F0F0FE00B908BD00F036
:1043E800EFFEFBE770B506460C4605E014F8011B26
:1043F8003046FEF7FFFB2A46551E002AF6D170BD4F
:1044080070B506460C4605E03046FEF711FC04F888
:10441800010B2A46551E002AF6D170BD0160426084
:10442800704701460020034605E00A6802EBC30214
:104438005268104401334A689A42F6D8704700001F
:1044480010B44FF0000C624601E001329C4643680C
:1044580093420DD9046804EBC2035B6863448B4242
:10446800F3D954F83230A1EB0C0153F8210006E0DF
:10447800044A1368012BB8BF0123136000205DF8BC
:10448800044B7047F006002010B54FF0000EF446BC
:1044980002E00CF1010C9E46436863450DD904689F
:1044A80004EBCC035B6873448B42F2D954F83C307C
:1044B800A1EB0E0143F8212005E0034A1368012B04
:1044C800B8BF0123136010BDF0060020F0B583B01B
:1044D80007460E46FFF7A5FF054600240BE02146D8
:1044E8003846FFF7ADFF019004220DEB020130467C
:1044F800FFF778FF0134AC42F1D303B0F0BDF0B55B
:1045080083B007460E46FFF78CFF054600240BE0F4
:1045180004220DEB02013046FFF772FF019A214693
:104528003846FFF7B1FF0134AC42F1D303B0F0BD18
:1045380070B505460E4600F0BBFB04464F21FEF75A
:104548000FFB324629462046FEF704FC2046FEF7BC
:1045580074FA00B170BD00F0B1FBFBE710B504467A
:1045680000F05FF801462046FFF7E2FF10BD0000AB
:1045780010B586B004460B22694603A8FEF746FA32
:104588000B4903A8FEF7DAFB214603A8FEF720FC37
:1045980003A8FEF742FA03A8FEF74DFA044603A85B
:1045A800FEF741FA01462046FFF7C2FF06B010BDEC
:1045B800586A0008034604E011F8012B03F8012BA0
:1045C800624602F1FF3C002AF6D17047034602E03A
:1045D80003F8011B624602F1FF3C002AF8D170473C
:1045E80084469CF800200B780131D01A03D10CF1D5
:1045F800010C002AF5D1704700B5844696466AB189
:104608009CF800200B780131D01A08D1BEF1010EB8
:1046180005D00CF1010C002AF2D100E000205DF871
:1046280004FB034600E001331A78002AFBD1181A6C
:10463800704770B504460D460846FFF7F2FF064678
:1046480000E00134237843B1324629462046FFF77B
:10465800D3FF0028F5D1204600E0002070BD00B54A
:1046680001EB020C884213D9604515D2531E03444E
:104678000CF1FF314FF0FF3E04E00A781A707344E2
:104688007144624602F1FF3C002AF6D15DF804FB52
:1046980003464FF0010EF5E703464FF0010EF1E730
:1046A80000F00100704700F00300704770B506463F
:1046B8000C4605E014F8011B3046FEF79BFA2A4623
:1046C800551E002AF6D170BD2DE9F0410646084670
:1046D800002506E021463046FEF78CFA01354046B3
:1046E8003A46571E42B100F10108FEF722F9044686
:1046F800FDF7EEFD0028EDD02846BDE8F08130B585
:1047080083B005460C460846FFF7CAFF50B9204655
:10471800FEF70CF9ADF80600FDF7DAFD40B1002010
:1047280003B030BD022221462846FFF7CDFFF7E748
:1047380002220DF106012846FFF7B8FF0220EFE735
:1047480030B583B005460C460846FFF7ACFF48B9BC
:104758002046FEF7E9F80190FDF7BAFD40B10020C8
:1047680003B030BD042221462846FFF7ADFFF7E726
:1047780004220DEB02012846FFF798FF0420EFE71B
:10478800F8B507460C4615462B46013D63B1074E62
:10479800002333603846FEF74BFA04F8010B336800
:1047A800002BF1D0002000E00120F8BDF006002029
:1047B8002DE9F04107460D4614462346013C93B1C6
:1047C8000C4E002333603846FEF732FA014636684D
:1047D8006EB905F101082846FEF7B1F8FDF778FD36
:1047E80010B94546E9E701263046BDE8F0810026C4
:1047F800FAE700BFF006002070B582B005460C4607
:104808000846FFF74DFF88B9064602220DF106015A
:104818002846FFF7B5FF70B1BDF806102046FEF731
:104828008CF8FDF755FD40B9012004E0022221462D
:104838002846FFF7BDFF02B070BD3046FBE770B5F4
:1048480082B005460C460846FFF72DFF80B906469C
:1048580004220DEB02012846FFF792FF68B1019987
:104868002046FEF768F8FDF733FD40B9012004E063
:10487800042221462846FFF79BFF02B070BD304650
:10488800FBE70000F8B507460C4615462B46013DE8
:1048980063B1074E002333603846FEF77DF904F80C
:1048A800010B3368002BF1D0002000E00120F8BD97
:1048B800F00600202DE9F04107460D461446234630
:1048C800013C93B10C4E002333603846FEF764F97F
:1048D800014636686EB905F101082846FEF72FF83B
:1048E800FDF7F6FC10B94546E9E701263046BDE874
:1048F800F0810026FAE700BFF006002070B582B00C
:1049080005460C460846FFF7CBFE88B90646022244
:104918000DF106012846FFF7B5FF70B1BDF8061086
:104928002046FEF70AF8FDF7D3FC40B9012004E061
:10493800022221462846FFF7BDFF02B070BD30466F
:10494800FBE770B582B005460C460846FFF7ABFE9C
:1049580080B9064604220DEB02012846FFF792FFB4
:1049680068B101992046FDF7E6FFFDF7B1FC40B9B3
:10497800012004E0042221462846FFF79BFF02B0ED
:1049880070BD3046FBE708B5022A04D0042A05D0DA
:10499800FFF79AFE01E0FFF7B2FE08BDFFF7D0FE71
:1049A800FBE708B5022A04D0042A05D0FFF700FF68
:1049B80001E0FFF721FF08BDFFF741FFFBE708B55E
:1049C800022A04D0042A05D0FFF774FF01E0FFF79C
:1049D80095FF08BDFFF7B5FFFBE70000024B986B9A
:1049E80000F00800704700BFA006002020F001007A
:1049F80070470000024A936B23F0400393637047AB
:104A0800A0060020024A936B23F0080393637047C3
:104A1800A0060020024A936B23F02003936370479B
:104A2800A0060020034B93F84C00052814BF002073
:104A380001207047A0060020024A936B23F002036E
:104A480093637047A006002008B5FFF7C7FF00B9B9
:104A580008BDFDF7F9FBFFF7C9FF044B5B6B9842F4
:104A680001D00020F4E70120F2E700BFA0060020F3
:104A780010B5094C00232360084B586BFDF7D6FD91
:104A880023680BB100222260044B00225A631A608B
:104A98005A60FFF7B7FF10BDF0060020A0060020FF
:104AA80008B5FDF7AFFC024B83F84C0008BD00BF0A
:104AB800A00600200F4B93F84C30022B17D0052B83
:104AC80004D00C4B986B00F02000704700B583B001
:104AD8006846FDF77DFB9DF8003033B9054B986BB0
:104AE80000F0200003B05DF804FB0020FAE7002086
:104AF800704700BFA006002008B5FCF739FC002865
:104B0800FBD008BD024B9860D9601A61704700BF9E
:104B1800A006002010B5FDF753FB0446FDF754FB33
:104B280002462146014800F0AEFA10BDB806002042
:104B380008B5FFF7EFFF024800F0B4FA08BD00BF60
:104B4800B8060020024B986B00F00400704700BFC5
:104B5800A0060020024A936B43F01003936370474A
:104B6800A0060020024B986B00F04000704700BF81
:104B7800A0060020024A936B43F0400393637047FA
:104B8800A0060020024B986B00F01000704700BF91
:104B9800A006002008B5FFF7F5FF50B9FDF740FB68
:104BA800084BDB6813B1074A10699847FFF744FFC1
:104BB80008BDFDF7FDFA0028F0D1FFF79DFFFDF7CE
:104BC80001FEEBE7A0060020054B03F13C0203C8F9
:104BD80082E803009A6B42F020029A63704700BF94
:104BE800A0060020014B5869704700BFA0060020AE
:104BF800014B5861704700BFA006002028B1064A43
:104C0800936B43F0040393637047034A936B23F059
:104C180004039363704700BFA0060020034B986C01
:104C2800042814BF00200120704700BFA006002000
:104C380008B5FDF78BFB034B996C586CFDF73EFBF1
:104C480008BD00BFA0060020024B986B00F00200D0
:104C5800704700BFA0060020014B83F84C00704746
:104C6800A0060020014B93F84C007047A0060020D6
:104C7800014B586499647047A0060020014B586C9A
:104C8800704700BFA0060020014B986C704700BF1A
:104C9800A006002000487047C406002010B504464E
:104CA800FFF738FFFFF7F6FF2146FEF747F810BD7C
:104CB80008B5FFF72FFFFFF7EDFF08BD10B5FFF7A9
:104CC800E9FF0446FDF7B9FE30B92046FDF7A5FE19
:104CD800054800F00DFA10BDFFF71CFF03492046F8
:104CE800FEF72CF8F1E700BFB8060020BC68000802
:104CF80038B5FFF7CFFF0446FFF71AFF164BABB1E5
:104D08002046AFF300800546C8B92046FDF77BFE74
:104D18002046FDF741FF0024112C0ED80F4B03EB62
:104D2800C4031B79834203D00134F5E70025ECE77F
:104D38000A4B53F8343098470546122C05D015F025
:104D4800020F06D005F0010038BD0548FFF7A6FFA1
:104D5800F5E7FFF7B3FFF5E7000000005C6A00081D
:104D6800305E000808B5FFF7C3FF0028FBD008BD78
:104D780070B5FFF73DFFFFF73DFEFDF719FA044652
:104D8800FFF762FE40B1254B1D685E68FFF770FEB5
:104D980015B13046A84728BBFFF782FEFFF78AFE09
:104DA80048B1FDF751FA1D4AD26B824203D81B4A1B
:104DB800126C824219D8FFF72DFE184B9B6813B16D
:104DC800164A10699847FDF79DFCFFF72BFE98B926
:104DD800FFF73AFFF8B1FEF703FFFFF7C3FFFFF74E
:104DE800D9FE70BDFFF7F6FAFBE7FDF74DFCFDF7BE
:104DF800D7FBFFF7EFFAF4E700F0F9F90028E7D05E
:104E080000F0FFF90028E3D0002CE1D1FFF7E2FA27
:104E1800FFF7C0FEE5E7FDF7E5F9DCE7A0060020AF
:104E2800A0F16103DBB2052B0BD9A0F14103DBB282
:104E3800052B08D9A0F13003DBB2092B05D830388F
:104E480070475738704737387047044A1368022B41
:104E5800B8BF022313604FF0FF307047F006002000
:104E6800002343767047437E0B44437670477D2882
:104E780014BF00200120704780F020007047827E18
:104E8800407E824214BF00200120704708B50022EE
:104E9800027642768276FDF7B6FD08BD10B5044667
:104EA800FCF770FAC0B2207610BD10B50446007E3B
:104EB80002E02046FFF7F2FF2428FAD110BD0000D7
:104EC800F8B50446104F00233B60FFF7E7FF05469F
:104ED8002046FFF7E3FF06462846FFF7A1FF3B6899
:104EE80033B1094B1B6813B1637EDB43A376F8BD6E
:104EF80005463046FFF794FF3B68002BF1D1EDB231
:104F080040EA0510A076ECE7F006002008B5242159
:104F1800FDF726FE08BD70B5054600F10C063046C3
:104F2800FDF771FD2846FFF79BFF2846FFF7B6FF00
:104F3800044607E021463046FDF712FE2846FFF7F3
:104F4800ADFF04463046FDF77FFDF0B1242C1CD0A0
:104F5800232C1AD021462846FFF785FF2046FFF765
:104F680086FF0028E6D02846FFF798FF0446A0F100
:104F78002303DBB2012B08D901462846FFF773FF4C
:104F88002046FFF779FF0446D4E7232C14BF0020FE
:104F9800012070BD10B504462046FFF786FF204665
:104FA800FFF7B9FF0028F7D02046FFF789FF10BDAB
:104FB80008B52D20FCF7F4F908BD08B52B20FCF73F
:104FC800EFF908BD10B504462046FFF7E3FFFCF7EC
:104FD800C5F90028F8D12046FFF751FF10B1FFF7B7
:104FE800ECFF10BDFFF7E4FFFBE710B500F10C0480
:104FF8002046FDF712FD2046FDF705FD10BD70B5F2
:105008000546002607E02046FDF7C6FD014628466E
:10501800FFF729FF013605F10C042046FDF714FDC2
:105028000028F0D131462846FDF719FD70BD10B5AE
:1050380004462321FDF794FD617E2046FDF7DAFD45
:1050480010BD10B504460C30FDF7DDFC2046FFF717
:1050580007FF2046FFF75AFF2046FFF7D0FF2046FC
:10506800FFF7E5FF2046FDF7D8FC10BD10B5044654
:10507800FFF714FF04E0FFF77DFD2046FFF70EFF62
:105088000328F8D010BD70B504460D461646043AFC
:1050980001310C30FDF7BAFC324629462046FDF7AF
:1050A800B5FC70BD10B50446FFF7F0FE2046FFF7CB
:1050B80089FF2046FFF7E3FE0028F7D02046FFF7D8
:1050C80094FF10BD10B5044604E02046FDF764FDCA
:1050D800FCF766F92046FDF7B7FC0028F5D110BDAE
:1050E80010B50446FDF78FFC2046FFF7EBFF10BD17
:1050F80010B50446FFF7CAFE2046FFF7A2FF204678
:10510800FFF7EEFF2046FFF7B1FFC0B22B2801D012
:105118002428F4D110BD10B5044628220021FFF739
:1051280055FA0023E36284F8303010BD38B50446E0
:105138000D46FFF7F0FFA56238BD000008B502492B
:10514800FFF7F4FF08BD00BFEC6A000870B505461C
:105158000E46002400E00134EB6AA34209D9314627
:1051680055F82400FFF73CFA0028F4D155F824003C
:1051780000E0002070BDF8B506460F46002400E0A8
:105188000134F36AA3420AD956F82450394628460E
:10519800FFF74FFA8542F3D156F8240000E00020CB
:1051A800F8BD00207047002070470020704700209D
:1051B80070470020704700207047002070477047F4
:1051C800704710B5846821464068FFF7B1F900219F
:1051D8002046FFF74DFDFFF72BFDFFF7C3FC08B98D
:1051E800012010BD0220FFF737FD0020F9E708B5C0
:1051F800FDF7C8F80138C0B201288CBF0020012093
:1052080008BD10B584B0FDF7BDF804466846FDF743
:1052180039F8012C04D0022C06D0002004B010BDAF
:10522800684600F0D6F8F9E7684600F0BCF9F5E7FB
:1052380008B50368012B02D0FEF784F808BDFFF714
:10524800C0FFFBE710F0040F06D110F008030DD0E3
:105258004FF40272012302E04FF4C062012310F000
:10526800020F00D0022343EA020070471A46F6E70D
:10527800C378827843EA0223427843EA02430078FB
:1052880043EA0060704710B584B04468236800930F
:105298006068FFF7D7FF02904FF4DB730393A368AE
:1052A800013301936846FEF721F804B010BD08B534
:1052B80043681868FEF78EF808BD10B50446FFF776
:1052C800DDFC002800DA10BD0021201AFCF7F6FFEB
:1052D800F9E738B544682046FFF7AAFF054608B93C
:1052E800284638BDA068FFF7E8FFF9E738B54468F5
:1052F8002046FEF74BF8054608B9284638BDA06891
:10530800FFF7DBFFF9E708B5FDF720F800210846AD
:10531800FCF7D4FF012008BD00B585B043681A68C2
:1053280001925B6802930023039301A8FEF766F8D5
:1053380005B05DF804FB10B590B04368694618687D
:10534800FEF780F8044610B9204610B010BDFFF7EC
:1053580095FC0028F8D108A8FFF78AFF0021FCF780
:10536800ADFFF1E708B54068436801334360FEF7D5
:1053780085F808BD08B54068436801334360C368D1
:105388000133C360FEF7BAF808BD08B5FCF7DEFFC5
:10539800FFF77AFC0021FCF791FF012008BD38B522
:1053A800054600F040F904466B685A68904200D3FD
:1053B80014461D6800F035F9014622462846FFF7D5
:1053C800F9F8FCF7C3FF00210846FCF777FF012036
:1053D80038BD08B50368132B0FD8ABB3013B122BAC
:1053E80034D8DFE803F013163333191C33331F2284
:1053F800332533282B3333332E0040F201129342E6
:1054080002D1FFF7CCFF00E0002008BDFFF73BFF0B
:10541800FBE7FFF74CFFF8E7FFF75BFFF5E7FFF760
:1054280065FFF2E7FFF76FFFEFE7FFF775FFECE7C0
:10543800FFF781FFE9E7FFF795FFE6E7FFF79AFF38
:10544800E3E7FFF7A2FFE0E70020DEE70020DCE764
:1054580010B5FDF76BFA0446FCF73AFF08B9204689
:1054680010BD044A13680A2BB8BF0A23136000242E
:10547800F5E700BFF006002008B5FCF7E5FEFFF7EA
:10548800E7FF08BD00B585B0036801934368029340
:105498008368039301A8FFF7CBFE05B05DF804FB12
:1054A80000B585B00368019343680293836803934A
:1054B80001A8FDF76BFF05B05DF804FB10B584B0DB
:1054C800044600680090FFF7ACF80130019063686B
:1054D8000293A36803936846FDF708FF04B010BD64
:1054E80000B583B000680090FFF79BF80130019089
:1054F8006846FDF7C3FF03B05DF804FB00B585B04F
:1055080003680193436802938368039301A8FDF736
:1055180075FF05B05DF804FB08B50068FDF75AFF94
:1055280008BD08B541680068FDF78CFF08BD10B5D7
:1055380084B0044600680190FFF773F801300290C8
:105548006368039301A8FDF7B5FF04B010BD10B55B
:1055580084B0044600680090FFF763F801300190BA
:1055680060680290FFF75DF8013003906846FDF728
:10557800C5FF04B010BD08B5FFF786FB0021FFF793
:1055880077FBFFF755FB012008BD08B58268416825
:105598000068FFF7B7FA00210846FFF769FBFFF735
:1055A80047FB012008BD10B50446FFF765FFC3B2ED
:1055B800F53B0A2B33D8DFE803F02E2A060A0E261D
:1055C8001222161A1E002046FFF75CFF10BD204667
:1055D800FFF766FFFAE72046FFF770FFF6E7204679
:1055E800FFF77EFFF2E72046FFF788FFEEE7204649
:1055F800FFF792FFEAE72046FFF793FFE6E720462A
:10560800FFF795FFE2E72046FFF7A1FFDEE7204618
:10561800FFF7B1FFDAE72046FFF7B7FFD6E700202C
:10562800D4E700207047002070470000DFF834D02E
:105638000D480E490E4A002302E0D458C4500433E2
:10564800C4188C42F9D30B4A0B4C002301E01360B9
:105658000432A242FBD3FBF7F3FB00F011F8FAF790
:10566800E5FE704700000120000000201C0000201B
:10567800006B000820000020F4060020FEE7000070
:1056880070B50D4D0D4C641BA4100026A64209D11F
:105698000B4D0C4C00F070F9641BA4100026A642B8
:1056A80005D170BD55F8043B98470136EEE755F82B
:1056B800043B98470136F2E7F86A0008F86A0008E0
:1056C800F86A0008FC6A000802440346934200D1C5
:1056D800704703F8011BF9E72DE9F04786468C4629
:1056E8000846089E154674461946002B40F0C280AD
:1056F8008542B2FA82F245D94AB1C2F1200300FAD2
:1057080002FC2EFA03F3954043EA0C0C94404FEA4E
:10571800154EA8B2BCFBFEF8230C0EFB18CC08FBF8
:1057280000F943EA0C43994528D9EB1808F1FF37EB
:1057380004D2994502D9A8F102072B44A3EB090327
:10574800A4B2B3FBFEFC0EFB1C330CFB00F044EAD6
:105758000344A04214D92C190CF1FF3304D2A042FF
:1057680002D9ACF102032C44241A43EA07401EB1C3
:10577800D440002334607360BDE8F0874746DDE716
:105788006346F1E792BB431B01214FEA154EAFB2C6
:10579800B3FBFEFC200C0EFB1C330CFB07F840EAA5
:1057A8000343984562D9EB180CF1FF3004D29845B1
:1057B80002D9ACF102002B44A3EB0803A4B2B3FB5B
:1057C800FEFC0EFB1C330CFB07F744EA0344A7421C
:1057D8004ED92C190CF1FF3304D2A74202D9ACF1EF
:1057E80002032C44E41B43EA0040C0E7C2F1200353
:1057F80020FA03F1954090402EFA03F303434FEA51
:10580800154EAFB2B1FBFEFC0EFB1C10190C0CFBC5
:1058180007F841EA0041884504FA02F422D96918D8
:105828000CF1FF3004D2884502D9ACF102002944BA
:10583800A1EB08019BB2B1FBFEFC0EFB1C110CFB9B
:1058480007F743EA01439F420ED9EB180CF1FF31E9
:1058580004D29F4202D9ACF102012B44DB1B41EA7E
:10586800004192E76046E3E76146F7E76046A3E751
:105878006346B7E7834206D916B9002108467BE795
:10588800C6E900E0F9E7B3FA83F78FB9834201D399
:10589800724508D8BEEB020460EB030301209C4666
:1058A8001EB9002168E73846FAE7C6E9004CF8E770
:1058B800C7F1200CBB4022FA0CF41C432EFA0CF161
:1058C80020FA0CF3B84001434FEA14490EFA07F5E1
:1058D800B3FBF9F81FFA84FE09FB18300B0C08FB20
:1058E8000EFA43EA00439A4502FA07F240D9E31850
:1058F80008F1FF3004D29A4502D9A8F102002344E6
:10590800A3EB0A0389B2B3FBF9F809FB183308FBC8
:105918000EFE41EA03418E452CD9611808F1FF3388
:1059280004D28E4502D9A8F10203214443EA00407B
:10593800A0FB0298A1EB0E014145CE46434602D397
:1059480006D14D4504D2B9EB020E68EB04030138C9
:10595800002EA6D0B5EB0E0261EB030101FA0CFC98
:1059680022FA07F34CEA0303F940C6E9003198E745
:105978004046C5E74346D9E7F8B500BFF8BC08BCC0
:105988009E467047F8B500BFF8BC08BC9E467047F5
:10599800192B000801000000C72C000802000000B5
:1059A80000000000000000000102030406070809C7
:1059B8003C3F786D6C2076657273696F6E3D22315D
:1059C8002E30223F3E3C21444F4354595045206DD0
:1059D800656D6F72792D6D6170205055424C494349
:1059E80020222B2F2F49444E20676E752E6F726729
:1059F8002F2F44544420474442204D656D6F7279DF
:105A0800204D61702056312E302F2F454E222022F6
:105A1800687474703A2F2F736F757263657761724B
:105A2800652E6F72672F6764622F6764622D6D65DC
:105A38006D6F72792D6D61702E647464223E3C6DB9
:105A4800656D6F72792D6D61703E3C6D656D6F721D
:105A58007920747970653D22666C617368222073C1
:105A6800746172743D2230783038303030303030E4
:105A780022206C656E6774683D2230783130303092
:105A880030223E203C70726F7065727479206E61AE
:105A98006D653D22626C6F636B73697A65223E3077
:105AA80078343030303C2F70726F70657274793E84
:105AB8003C2F6D656D6F72793E3C6D656D6F7279C7
:105AC80020747970653D22666C6173682220737456
